{
  "contractName": "PatientRecords",
  "abi": [
    {
      "inputs": [
        {
          "internalType": "address",
          "name": "_patientAddress",
          "type": "address"
        },
        {
          "internalType": "string",
          "name": "_name",
          "type": "string"
        },
        {
          "internalType": "string",
          "name": "_cardNumber",
          "type": "string"
        },
        {
          "internalType": "string",
          "name": "_medicalHistoryCID",
          "type": "string"
        },
        {
          "internalType": "string",
          "name": "_imageHistoryCID",
          "type": "string"
        }
      ],
      "name": "addPatient",
      "outputs": [],
      "stateMutability": "nonpayable",
      "type": "function"
    },
    {
      "inputs": [
        {
          "internalType": "address",
          "name": "_patientAddress",
          "type": "address"
        }
      ],
      "name": "getPatient",
      "outputs": [
        {
          "internalType": "string",
          "name": "",
          "type": "string"
        },
        {
          "internalType": "string",
          "name": "",
          "type": "string"
        },
        {
          "internalType": "string",
          "name": "",
          "type": "string"
        },
        {
          "internalType": "string",
          "name": "",
          "type": "string"
        }
      ],
      "stateMutability": "view",
      "type": "function",
      "constant": true
    },
    {
      "inputs": [],
      "name": "getAllPatients",
      "outputs": [
        {
          "internalType": "address[]",
          "name": "",
          "type": "address[]"
        }
      ],
      "stateMutability": "view",
      "type": "function",
      "constant": true
    },
    {
      "inputs": [
        {
          "internalType": "string",
          "name": "_cardNumber",
          "type": "string"
        }
      ],
      "name": "getPatientByCardNumber",
      "outputs": [
        {
          "internalType": "string",
          "name": "",
          "type": "string"
        },
        {
          "internalType": "string",
          "name": "",
          "type": "string"
        },
        {
          "internalType": "string",
          "name": "",
          "type": "string"
        },
        {
          "internalType": "string",
          "name": "",
          "type": "string"
        }
      ],
      "stateMutability": "view",
      "type": "function",
      "constant": true
    },
    {
      "inputs": [],
      "name": "deletePatient",
      "outputs": [],
      "stateMutability": "nonpayable",
      "type": "function"
    }
  ],
  "bytecode": "0x608060405234801561001057600080fd5b506110aa806100206000396000f3fe608060405234801561001057600080fd5b50600436106100575760003560e01c806318a231a91461005c578063191aef111461007a5780633ab8ee0c14610096578063a385e548146100c9578063b5368e20146100d3575b600080fd5b610064610106565b6040516100719190610d82565b60405180910390f35b610094600480360381019061008f9190610b64565b610194565b005b6100b060048036038101906100ab9190610c3b565b610453565b6040516100c09493929190610da4565b60405180910390f35b6100d16106f2565b005b6100ed60048036038101906100e89190610b3b565b61075c565b6040516100fd9493929190610da4565b60405180910390f35b6060600280548060200260200160405190810160405280929190818152602001828054801561018a57602002820191906000526020600020905b8160009054906101000a900473ffffffffffffffffffffffffffffffffffffffff1673ffffffffffffffffffffffffffffffffffffffff1681526020019060010190808311610140575b5050505050905090565b6040518060800160405280858152602001848152602001838152602001828152506000808773ffffffffffffffffffffffffffffffffffffffff1673ffffffffffffffffffffffffffffffffffffffff168152602001908152602001600020600082015181600001908051906020019061020f929190610a1b565b50602082015181600101908051906020019061022c929190610a1b565b506040820151816002019080519060200190610249929190610a1b565b506060820151816003019080519060200190610266929190610a1b565b5090505060405180608001604052808581526020018481526020018381526020018281525060018460405161029b9190610d6b565b908152602001604051809103902060008201518160000190805190602001906102c5929190610a1b565b5060208201518160010190805190602001906102e2929190610a1b565b5060408201518160020190805190602001906102ff929190610a1b565b50606082015181600301908051906020019061031c929190610a1b565b509050506000805b6002805490508110156103e1578673ffffffffffffffffffffffffffffffffffffffff1660028281548110610382577f4e487b7100000000000000000000000000000000000000000000000000000000600052603260045260246000fd5b9060005260206000200160009054906101000a900473ffffffffffffffffffffffffffffffffffffffff1673ffffffffffffffffffffffffffffffffffffffff1614156103ce57600191505b80806103d990610f76565b915050610324565b508061044b576002869080600181540180825580915050600190039060005260206000200160009091909190916101000a81548173ffffffffffffffffffffffffffffffffffffffff021916908373ffffffffffffffffffffffffffffffffffffffff1602179055505b505050505050565b606080606080600060018660405161046b9190610d6b565b908152602001604051809103902060405180608001604052908160008201805461049490610f44565b80601f01602080910402602001604051908101604052809291908181526020018280546104c090610f44565b801561050d5780601f106104e25761010080835404028352916020019161050d565b820191906000526020600020905b8154815290600101906020018083116104f057829003601f168201915b5050505050815260200160018201805461052690610f44565b80601f016020809104026020016040519081016040528092919081815260200182805461055290610f44565b801561059f5780601f106105745761010080835404028352916020019161059f565b820191906000526020600020905b81548152906001019060200180831161058257829003601f168201915b505050505081526020016002820180546105b890610f44565b80601f01602080910402602001604051908101604052809291908181526020018280546105e490610f44565b80156106315780601f1061060657610100808354040283529160200191610631565b820191906000526020600020905b81548152906001019060200180831161061457829003601f168201915b5050505050815260200160038201805461064a90610f44565b80601f016020809104026020016040519081016040528092919081815260200182805461067690610f44565b80156106c35780601f10610698576101008083540402835291602001916106c3565b820191906000526020600020905b8154815290600101906020018083116106a657829003601f168201915b505050505081525050905080600001518160200151826040015183606001519450945094509450509193509193565b600260008154811061072d577f4e487b7100000000000000000000000000000000000000000000000000000000600052603260045260246000fd5b9060005260206000200160006101000a81549073ffffffffffffffffffffffffffffffffffffffff0219169055565b60608060608060008060008773ffffffffffffffffffffffffffffffffffffffff1673ffffffffffffffffffffffffffffffffffffffff1681526020019081526020016000206040518060800160405290816000820180546107bd90610f44565b80601f01602080910402602001604051908101604052809291908181526020018280546107e990610f44565b80156108365780601f1061080b57610100808354040283529160200191610836565b820191906000526020600020905b81548152906001019060200180831161081957829003601f168201915b5050505050815260200160018201805461084f90610f44565b80601f016020809104026020016040519081016040528092919081815260200182805461087b90610f44565b80156108c85780601f1061089d576101008083540402835291602001916108c8565b820191906000526020600020905b8154815290600101906020018083116108ab57829003601f168201915b505050505081526020016002820180546108e190610f44565b80601f016020809104026020016040519081016040528092919081815260200182805461090d90610f44565b801561095a5780601f1061092f5761010080835404028352916020019161095a565b820191906000526020600020905b81548152906001019060200180831161093d57829003601f168201915b5050505050815260200160038201805461097390610f44565b80601f016020809104026020016040519081016040528092919081815260200182805461099f90610f44565b80156109ec5780601f106109c1576101008083540402835291602001916109ec565b820191906000526020600020905b8154815290600101906020018083116109cf57829003601f168201915b505050505081525050905080600001518160200151826040015183606001519450945094509450509193509193565b828054610a2790610f44565b90600052602060002090601f016020900481019282610a495760008555610a90565b82601f10610a6257805160ff1916838001178555610a90565b82800160010185558215610a90579182015b82811115610a8f578251825591602001919060010190610a74565b5b509050610a9d9190610aa1565b5090565b5b80821115610aba576000816000905550600101610aa2565b5090565b6000610ad1610acc84610e36565b610e05565b905082815260208101848484011115610ae957600080fd5b610af4848285610f02565b509392505050565b600081359050610b0b8161105d565b92915050565b600082601f830112610b2257600080fd5b8135610b32848260208601610abe565b91505092915050565b600060208284031215610b4d57600080fd5b6000610b5b84828501610afc565b91505092915050565b600080600080600060a08688031215610b7c57600080fd5b6000610b8a88828901610afc565b955050602086013567ffffffffffffffff811115610ba757600080fd5b610bb388828901610b11565b945050604086013567ffffffffffffffff811115610bd057600080fd5b610bdc88828901610b11565b935050606086013567ffffffffffffffff811115610bf957600080fd5b610c0588828901610b11565b925050608086013567ffffffffffffffff811115610c2257600080fd5b610c2e88828901610b11565b9150509295509295909350565b600060208284031215610c4d57600080fd5b600082013567ffffffffffffffff811115610c6757600080fd5b610c7384828501610b11565b91505092915050565b6000610c888383610c94565b60208301905092915050565b610c9d81610ec6565b82525050565b6000610cae82610e76565b610cb88185610e99565b9350610cc383610e66565b8060005b83811015610cf4578151610cdb8882610c7c565b9750610ce683610e8c565b925050600181019050610cc7565b5085935050505092915050565b6000610d0c82610e81565b610d168185610eaa565b9350610d26818560208601610f11565b610d2f8161104c565b840191505092915050565b6000610d4582610e81565b610d4f8185610ebb565b9350610d5f818560208601610f11565b80840191505092915050565b6000610d778284610d3a565b915081905092915050565b60006020820190508181036000830152610d9c8184610ca3565b905092915050565b60006080820190508181036000830152610dbe8187610d01565b90508181036020830152610dd28186610d01565b90508181036040830152610de68185610d01565b90508181036060830152610dfa8184610d01565b905095945050505050565b6000604051905081810181811067ffffffffffffffff82111715610e2c57610e2b61101d565b5b8060405250919050565b600067ffffffffffffffff821115610e5157610e5061101d565b5b601f19601f8301169050602081019050919050565b6000819050602082019050919050565b600081519050919050565b600081519050919050565b6000602082019050919050565b600082825260208201905092915050565b600082825260208201905092915050565b600081905092915050565b6000610ed182610ed8565b9050919050565b600073ffffffffffffffffffffffffffffffffffffffff82169050919050565b6000819050919050565b82818337600083830152505050565b60005b83811015610f2f578082015181840152602081019050610f14565b83811115610f3e576000848401525b50505050565b60006002820490506001821680610f5c57607f821691505b60208210811415610f7057610f6f610fee565b5b50919050565b6000610f8182610ef8565b91507fffffffffffffffffffffffffffffffffffffffffffffffffffffffffffffffff821415610fb457610fb3610fbf565b5b600182019050919050565b7f4e487b7100000000000000000000000000000000000000000000000000000000600052601160045260246000fd5b7f4e487b7100000000000000000000000000000000000000000000000000000000600052602260045260246000fd5b7f4e487b7100000000000000000000000000000000000000000000000000000000600052604160045260246000fd5b6000601f19601f8301169050919050565b61106681610ec6565b811461107157600080fd5b5056fea26469706673582212202da549d3100dfff125f69cbb3236f2208ae1f42d1c1fe45e5dd208d8521c7ce564736f6c63430008000033",
  "immutableReferences": {},
  "source": "// SPDX-License-Identifier: MIT\npragma solidity ^0.8.0;\n\ncontract PatientRecords {\n    struct Patient {\n        string name;\n        string cardNumber;\n        string medicalHistoryCID; // IPFS CID\n        string imageHistoryCID; // IPFS CID\n    }\n\n    mapping(address => Patient) private patients;\n    mapping(string => Patient) private cardPatients;\n    address[] private patientAddresses;\n\n    function addPatient(address _patientAddress, string memory _name, string memory _cardNumber, string memory _medicalHistoryCID, string memory _imageHistoryCID) public {\n        patients[_patientAddress] = Patient(_name, _cardNumber, _medicalHistoryCID, _imageHistoryCID);\n        cardPatients[_cardNumber] = Patient(_name, _cardNumber, _medicalHistoryCID, _imageHistoryCID);\n        bool f = false;\n        for (uint i = 0; i < patientAddresses.length; i++){\n            if (patientAddresses[i] == _patientAddress){\n                f = true;\n            }\n        }\n        if (!f){\n            patientAddresses.push(_patientAddress);\n        }\n    }\n\n    function getPatient(address _patientAddress) public view returns (string memory, string memory, string memory, string memory) {\n        Patient memory patient = patients[_patientAddress];\n        return (patient.name, patient.cardNumber, patient.medicalHistoryCID, patient.imageHistoryCID);\n    }\n\n    function getAllPatients() public view returns (address[] memory) {\n        return patientAddresses;\n    }\n    function getPatientByCardNumber(string memory _cardNumber) public view returns (string memory, string memory, string memory, string memory) {\n        Patient memory patient = cardPatients[_cardNumber];\n        return (patient.name, patient.cardNumber, patient.medicalHistoryCID, patient.imageHistoryCID);\n    }\n\n    function deletePatient() public {\n        delete patientAddresses[0];\n    }\n}\n",
  "sourcePath": "/home/timur/work/nirs/contracts/PatientRecords.sol",
  "compiler": {
    "name": "solc",
    "version": "0.8.0+commit.c7dfd78e.Emscripten.clang"
  },
  "schemaVersion": "3.4.16",
  "updatedAt": "2024-05-29T15:10:18.302Z",
  "networkType": "ethereum",
  "devdoc": {
    "kind": "dev",
    "methods": {},
    "version": 1
  },
  "userdoc": {
    "kind": "user",
    "methods": {},
    "version": 1
  }
}